:040000008031112812
:100008007E1480312000911C0A280B280F2891109B
:1000180001302100BB077E10090080311328EF3022
:10002800840087308500DA30860000308700103081
:10003800983131208031803084009A3085004830F2
:1000480086000130870020309831312080315B30C4
:10005800840000308500153098312B208031A03085
:100068008400003085003A3098312B2080312030D0
:10007800840001308500283098312B2080317E1093
:1000880020009331422B03302100340603194D28F8
:100098004E28792B05303406031D5328542855283B
:1000A800792B3108031959285A285D280130B102E3
:1000B800792B91319A218031953131258031210078
:1000C80032080319682869286A2B3D08803A2000FD
:1000D800B90080303902031D74280A3021003C021F
:1000E8000318772878286A2B04302100B400792B6C
:1000F8003D08803A2000B90080303902031D872866
:100108000A3021003C02031C8A288B28792B0A30EC
:100118002100B2000230B400E730AA000330AB007F
:10012800E730A8000330A900E730A6000330A70095
:100138002000E001DF0102302100B100792B4108E5
:10014800803A2000B90021003F08803A2000390297
:10015800031DB12821003E084002031CB428B5281D
:10016800B92805302100B400792B21003F08803AD6
:100178002000B90021002908803A20003902031D17
:10018800C828210028083E020318CB28CC28D128EB
:1001980021003F08A9003E08A80021003F08803A36
:1001A8002000B90021002B08803A20003902031DE5
:1001B800E02821002A083E020318E328E428F12851
:1001C80021003F08AB003E08AA0020005F08DE00BF
:1001D8006008DD0021005708B00001302000DF076B
:1001E8000B305F020318F928FA2822291430F0008E
:1001F8000030F10021002908F3002808F2009131AD
:100208003F2180312100280870072000B900210013
:100218002908713D2000BA003A08803ABB00210045
:100228003F08803A20003B02031D1E2921003E089A
:100238002000390203182129222984292000DF01FE
:100248000130E0071430F0000030F10021002708E9
:10025800F3002608F20091313F2180312100260861
:1002680070072000B90021002708713D2000BA005E
:100278003A08803ABB0021002908803A20003B0256
:10028800031D4A29210028082000390203184D2996
:100298004E29662921005703031D5329542957293C
:1002A8001430B200792B0130D7002000DF01E001C3
:1002B800E7302100A8000330A900E730A60003308A
:1002C800A7006B2921002908A7002808A600E73005
:1002D800A8000330A9000B3020006002031C752918
:1002E80076298429E001E7302100A8000330A9001D
:1002F8005703031D80298129822954290130D700F9
:1003080020005F08703E8400A0300318013E85007D
:1003180000082100D80020006008653E8400A03055
:100328000318013E850000082100D9009431B32448
:1003380080319F283008D70020005E08703E840076
:10034800A0300318013E850000082100D8002000D5
:100358005D08653E8400A0300318013E8500000852
:100368002100D90020005E08703E8400A0300318E8
:10037800013E850000082100A40020005D08653EBC
:100388008400A0300318013E850000082100A10068
:1003980020005E080319D129D229E9295E086F3E99
:1003A8008400A0300318013E85000008B9005E08EB
:1003B800703E8400A0300318013E85000008BA0092
:1003C80039083A022100AF00EB292100AF010A30B9
:1003D80020005E020318F129F229092A5E08703EFE
:1003E8008400A0300318013E85000008B9005E08AB
:1003F800713E8400A0300318013E85000008BA0051
:1004080039083A022100AE000B2A2100AE01200073
:100418005D080319102A112A282A5D08643E840001
:10042800A0300318013E85000008B9005D08653E4C
:100438008400A0300318013E85000008BA0039087E
:100448003A022100AD002A2A2100AD010A3020001D
:100458005D020318302A312A482A5D08653E840067
:10046800A0300318013E85000008B9005D08663E0B
:100478008400A0300318013E85000008BA0039083E
:100488003A022100AC004A2A2100AC010230F000F7
:100498000030F1002F082000B900BA013908F20035
:1004A8003A08F30091313F21803170082100AF00F4
:1004B8000230F0000030F1002E082000B900BA0127
:1004C8003908F2003A08F30091313F218031700871
:1004D8002100AE000230F0000030F1002D082000AD
:1004E800B900BA013908F2003A08F30091313F2106
:1004F800803170082100AD000230F0000030F100BA
:100508002C082000B900BA013908F2003A08F300B3
:1005180091313F21803170082100AC002F0824025E
:10052800A30024082E07A5002D082102A0002108F9
:100538002C07A200E730AA000330AB0001302000EE
:10054800DF000130E00021002408D8002108D9008C
:100558009431B324803102302100B1001E30B20042
:10056800792B4108803A2000B90021003F08803AE1
:1005780020003902031DC32A21003E084002031C43
:10058800C62AC72AC82AB52821003F08803A200071
:10059800B90021002B08803A20003902031DD72A10
:1005A80021002A083E020318DA2ADB2AE52A21005C
:1005B8003F08AB003E08AA0020005F08DE00600884
:1005C800DD0020005F03031DEA2AEB2AFF2A210031
:1005D800240823060319F12AF22AF52A2000DF014C
:1005E8003A2B250824060319FA2AFB2AFF2A023087
:1005F8002000DF003A2B20005F08031D042B052B89
:100608000D2B21002508240603190B2B0C2B0D2B71
:10061800FB2A01302000DF006003031D142B152B7B
:10062800262B21002108200603191B2B1C2B1F2B0E
:100638002000E0013A2B220821060319242B252B40
:10064800262BFB2A20006008031D2B2B2C2B372B75
:100658002100220821060319322B332B372B0230B5
:100668002000E0003A2B01302000E0005F03031D6A
:100678003E2B3F2B572B6003031D432B442B572B3B
:100688005E08A33E8600870101082100D8002000EB
:100698005D08A03E8600870101082100D900943139
:1006A800B3248031B5285F08A33E8600870101087E
:1006B8002100D80020006008A03E860087010108BC
:1006C8002100D9009A290330B400792B210032087F
:1006D800003A03197C280A3A0319A3281E3A031979
:1006E8009E290A3A0319B52A672B080000340034FA
:1006F800003400340034003400345F3400340034F3
:100708000034073400340734003414347F3414348C
:100718007F34143424342A347F342A341234233472
:10072800133408346434623436344934553422344A
:1007380050340034053403340034003400341C349D
:100748002234413400340034413422341C3400341F
:1007580008342A341C342A340834083408343E3423
:100768000834083400345034303400340034083449
:100778000834083408340834003430343034003451
:100788000034203410340834043402343E345134F4
:10079800493445343E34003442347F3440340034E4
:1007A8004234613451344934463421344134453477
:1007B8004B3431341834143412347F341034273421
:1007C80045344534453439343C344A344934493461
:1007D800303401347134093405340334363449343F
:1007E80049344934363406344934493429341E34BA
:1007F8000034363436340034003400345634363459
:1008080000340034003408341434223441341434AD
:100818001434143414341434413422341434083461
:100828000034023401345134093406343234493442
:10083800793441343E347E341134113411347E34E9
:100848007F3449344934493436343E3441344134B0
:10085800413422347F344134413422341C347F34CF
:1008680049344934493441347F3409340934013432
:1008780001343E3441344134513432347F34083405
:10088800083408347F34003441347F344134003430
:100898002034403441343F3401347F340834143434
:1008A800223441347F3440344034403440347F343F
:1008B8000234043402347F347F340434083410346E
:1008C8007F343E344134413441343E347F3409343A
:1008D8000934093406343E344134513421345E3409
:1008E8007F34093419342934463446344934493478
:1008F80049343134013401347F34013401343F3414
:100908004034403440343F341F34203440342034A1
:100918001F347F342034183420347F346334143443
:10092800083414346334033404347834043403341A
:1009380061345134493445344334003400347F340D
:1009480041344134023404340834103420344134FE
:1009580041347F3400340034043402340134023426
:10096800043440344034403440344034003401349A
:100978000234043400342034543454345434783435
:100988007F34483444344434383438344434443478
:100998004434203438344434443448347F3438348C
:1009A800543454345434183408347E3409340134FB
:1009B800023408341434543454343C347F34083406
:1009C800043404347834003444347D3440340034FE
:1009D8002034403444343D34003400347F341034FF
:1009E80028344434003441347F34403400347C3477
:1009F80004341834043478347C340834043404342B
:100A08007834383444344434443438347C341434FA
:100A180014341434083408341434143418347C343A
:100A28007C3408340434043408344834543454349A
:100A38005434203404343F344434403420343C3477
:100A48004034403420347C341C3420344034203446
:100A58001C343C344034303440343C34443428343E
:100A68001034283444340C345034503450343C342A
:100A78004434643454344C34443400340834363404
:100A880041340034003400347F34003400340034FE
:100A98004134363408340034083408342A341C34D9
:100AA800083408341C342A3408340834FB30200055
:100AB8006106031D602D612D672D6308013AE3006F
:100AC8009131F6218531503020006106031D6D2DCE
:100AD8006E2DE32D2830E1026308031D742D752D5A
:100AE800DF2D0230640203187A2D7B2DDF2D640878
:100AF800C300C401C335C40D6530C5000030C6004D
:100B08004308450786004408463D8700403FCD001E
:100B1800413FCE004E08803AC30080304302031D97
:100B2800972D64304D0203189A2D9B2DA12D053069
:100B38002000CD070030CE3DA62D32302000CD0755
:100B48000030CE3D6408031DAA2DAB2DBC2D4E08E8
:100B5800803AC30080304302031DB42D65304D0236
:100B6800031CB72DB82DCE2D2000CD01CE01CE2DE2
:100B78004E08803AC30083304302031DC52DE93077
:100B88004D02031CC82DC92DCE2D20006608CE00AD
:100B98006508CD0020006435653E86000030873D3D
:100BA80064350030873D4D08C03F4E08C13F913144
:100BB800F6218531E32D983137208531152F023004
:100BC800200064020318E92DEA2D282E210056087A
:100BD800803A2000C30080304302031DF62D6530A3
:100BE80021005502031CF92DFA2D0D2F20006E0847
:100BF80021005606031D042E20006D08210055060D
:100C0800031D072E082E0D2F20006435693E86002F
:100C18000030873D64350030873D21005508C03FCE
:100C28005608C13F9A31A0228531F801F80A3930B7
:100C3800F900A230FA00FB0180308D31482585315A
:100C480002302000E4070D2F21005608803A2000CA
:100C5800C30080304302031D342E053021005502A5
:100C68000318372E382E0D2F01302000E4026403BC
:100C7800031D3F2E402E472E9A31A02285319131F7
:100C8800F62185310D2F66082100CC00200065086B
:100C98002100CB00200068082100CE002000670852
:100CA8002100CD004C08FD004B08FC0088319F2036
:100CB80085317D082000CC007C08CB0021004E083F
:100CC800FD004D08FC0088319F2085317D082000FB
:100CD800CA007C08C90063308600003087004631AE
:100CE80063308400003085000831403F0002A000D6
:100CF8000131413F003BA100A201A11BA203220830
:100D0800A3004B084902C3004C084A3BC4004308EF
:100D1800C5004408C6000030C61BFF30C700C80025
:100D28000C30C535C60DC70DC80D890B952E480862
:100D3800A7004708A6004608A5004508A400963164
:100D480040268531200021082100D20020002008FB
:100D58002100D10000302000A3000030A200103094
:100D6800A1000030A00021005108F0005208F10055
:100D7800890D893B8909F200F30020006908F40015
:100D88006A08F500890D893B8909F600F7009C314E
:100D98007A24853173082000A7007208A60071081C
:100DA800A5007008A400963140268531200020084F
:100DB8004B022100CF00200021084C3B2100D0002D
:100DC800CB30F4000030F5000230F6006A3099317B
:100DD800B9218531CD30F4000030F5000230F6003D
:100DE80068309931B9218531CF30F4000030F500F1
:100DF8000230F60066309931B9218531D130F400DE
:100E08000030F5000230F60064309931B92185319F
:100E1800DF2D210056082000EE0021005508200093
:100E2800ED00080000302000B7000030B6000030A8
:100E3800B5000030B4000030BB000030BA0000300C
:100E4800B9000030B800BD01BC010130BD073D3517
:100E5800343E860001308700403FAE00413FAF007E
:100E68003C35343E8600013087002E08C03F2F08ED
:100E7800C13F2E08B0002F08B1000030B11BFF3071
:100E8800B200B3003008B4073108B53D3208B63DAA
:100E98003308B73D3D35203E860001308700403F8E
:100EA800AE00413FAF003C35203E86000130870050
:100EB8002E08C03F2F08C13F2E08B0002F08B100F0
:100EC8000030B11BFF30B200B3003008B80731085A
:100ED800B93D3208BA3D3308BB3D0130BC07093083
:100EE8003C02031C782F792F292F01309C3148248C
:100EF800873120003D35343E860001308700700878
:100F0800C03F7108C13F7008AE007108AF000030E3
:100F1800AF1BFF30B000B1002E08B4072F08B53D55
:100F28003008B63D3108B73D00309C314824873140
:100F380020003D35203E8600013087007008C03F04
:100F48007108C13F7008AE007108AF000030AF1BD8
:100F5800FF30B000B1002E08B8072F08B93D30089F
:100F6800BA3D3108BB3D0030A3000030A20000307C
:100F7800A1000A30A0003708A7003608A6003508E7
:100F8800A5003408A40096314026873120002108A6
:100F98002100D600200020082100D50000302000C4
:100FA800A3000030A2000030A1000A30A0003B08D6
:100FB800A7003A08A6003908A5003808A400963109
:100FC80040268731200021082100D4002000200875
:100FD8002100D300080030342E343034303400344B
:100FE80030343A34003430343A34003430343A341B
:060FF80000342034003437
:1010020020006108031D0628072809282830E5006A
:10101200FB306106031D0E280F281B280130E40750
:101022000A306402031C162817281828E4018A31A2
:10103200A0228831503020006106031D2128222879
:101042009E286508E1020B306502031C29282A2824
:101052002C280530E50208306402031831283228B2
:1010620074286830BA000030BB0064083A07860072
:1010720000303B3D87000108BC00BD014228013021
:10108200BD073D08003E8400A0300318013E8500E4
:1010920000083C0603194E284F28552849303D02C6
:1010A200031C5428552840280130BD0748303D0212
:1010B200031C5C285D285E28BD016830BA00003040
:1010C200BB0064083A07860000303B3D87003D08BC
:1010D200003E8400A0300318013E85000008810014
:1010E2008A31A0228831083020006406031D7A2844
:1010F2007B28972899318821883171082000E700E0
:101102007008E6006630F4000030F5000A30F600A0
:101112000A30F00063089831B8208831003E9931D6
:10112200B92188319831372088319E2809306406E8
:10113200031D9C289D289E28932808007C08F00007
:101142007D08F100890D893B8909F200F300003026
:10115200F7000030F600C330F5005030F4009C3147
:101162007A24883173082000B9007208B800710827
:10117200B7007008B6000030A3000030A2000030B3
:10118200A1000230A0003908A7003808A6003708DD
:10119200A5003608A4009631402688312000230895
:1011A200BD002208BC002108BB002008BA000030A4
:1011B200C1000030C0000030BF000030BE002D2949
:1011C2003D08C1003C08C0003B08BF003A08BE0011
:1011D2004108A3004008A2003F08A1003E08A00069
:1011E2003908A7003808A6003708A5003608A40069
:1011F200963140268831200020083E07AE002108A3
:101202003F3DAF002208403DB0002308413DB10000
:101212003108B5003008B4002F08B3002E08B20020
:101222000030A3000030A2000030A1000230A00074
:101232003508A7003408A6003308A5003208A40028
:1012420096314026883120002308BD002208BC00C8
:101252002108BB002008BA0041083D06031D3B29B6
:1012620040083C06031D3B293F083B06031D3B2962
:101272003E083A06031D3E293F29E1283B08FD00AE
:101282003A08FC00080002302000C6000330C70004
:10129200B10121003D082000B30021003C082000DC
:1012A200B200B40104309F31AF2789312000B1016F
:1012B200B10A21003F082000B30021003E082000AF
:1012C200B200B40104309E315E26893121005708F4
:1012D20003196C296D29722903302000C6000230DF
:1012E200C70021004803031D772978298529033087
:1012F200F8003F30F900A130FA00FB01FB0A003090
:101302008D3148258931C52920004608F8003C3036
:10131200F900A230FA00FB0100308D3148258931F5
:101322003D302000A3000730A4009B31BD2389314A
:1013320020004608F8003D30F9000030FA00FB01B9
:1013420002308D314825893120004708F8003F30AE
:10135200F900A230FA00FB0100308D3148258931B5
:101362003D302000A3000730A4009B31EB238931DC
:1013720020004708F8003D30F9000030FA00FB0178
:1013820002308D314825893121004403031DCA29C9
:10139200CB29EF2948030319CF29D029EF29163089
:1013A2002000C400A230C500C8014808B1004808A6
:1013B2004407840045080318013E85000008B20076
:1013C200B301093098318020893101302000C807EB
:1013D20004304802031CEE29EF29D6290800FB300D
:1013E20020006106031DF629F729032A0130E307CD
:1013F20005306302031CFE29FF29002AE301933111
:10140200BA238931503020006106031D092A0A2AB5
:101412009F2A2830E1026308031D102A112A1D2A7F
:101422006803031D152A162A182AE8011A2A013010
:10143200E8009331BA23893120006303031D222A75
:10144200232A3C2A0530E6070030E73D6708803A48
:10145200BD0080303D02031D302AC9306602031CE4
:10146200332A342A392A78302000E6000030E70097
:101472009331BA238931023020006306031D422AC8
:10148200432A5C2A0530E4070030E53D6508803ACE
:10149200BD0080303D02031D502A97306402031CB8
:1014A200532A542A592A64302000E4000030E5000F
:1014B2009331BA238931033020006306031D622A67
:1014C200632A982A68082100C400200067082100C6
:1014D200C300200066082100C20020006508210028
:1014E200C100200064082100C000C030F4000030B8
:1014F200F5000230F60070309931B9218931C230DD
:10150200F4000030F5000230F6006E309931B92156
:101512008931C430F4000030F500F601F60A733068
:101522009931B92189319831372089319F2A043084
:101532006306031D9D2A9E2A9F2A942A08002000E2
:10154200B901B1016830FC000030FD0039087C07A8
:10155200860000307D3D87000108B200640839062C
:101562000319B42AB62A0130B72A0030B300390869
:10157200023E983180208A3101302000B9070830BC
:101582003902031CC52AC62AA22A0830640203189B
:10159200CB2ACC2A202B6830FC000030FD006408E6
:1015A2007C07860000307D3D87000108B700B90145
:1015B200DC2A0130B9073908003E8400A030031844
:1015C200013E8500000837060319E82AE92AEF2AB6
:1015D20049303902031CEE2AEF2ADA2AB101B10A94
:1015E2003708B200B301B30A0230983180208A3141
:1015F20001302000B8000130B90748303902031C1D
:10160200032B042B052BB901B101B10A3908003EA5
:101612008400A0300318013E85000008B200B30127
:101622003808023E983180208A3101302000B80704
:1016320008303802031C1E2B1F2BFC2A2B2BF8010F
:10164200F80AB230F900A030FA00FB0100308D3107
:1016520048258A310330F8000730F900A230FA0039
:101662000830200064060319372B392B01303A2B3E
:101672000030FB0000308D3148258A310330F800FC
:101682002D30F900A230FA00093020006406031957
:101692004B2B4D2B01304E2B0030FB0007308D3190
:1016A20048258A31080020006308BC000130BA00D6
:1016B2000230BB00210057080319602B612B662BF7
:1016C20002302000BA000130BB0020003A08F800C6
:1016D2003C30F900A230FA00FB0100308D31482580
:1016E2008B3133302000A3000730A4009B31BD238F
:1016F2008B3120003A08F8003330F9000030FA004C
:101702003A08FF3EB100FF3003180030B2003C0837
:101712003106320403198E2B902B0130912B0030AD
:10172200FB0004308D3148258B3120003B08F80046
:101732003F30F900A230FA00FB0100308D3148251C
:101742008B3133302000A3000730A4009B31EB2300
:101752008B3120003B08F8003330F9000030FA00EA
:101762003B08FF3EB100FF3003180030B2003C08D6
:10177200310632040319BE2BC02B0130C12B0030BD
:10178200FB0004308D3148258B3121005708031DA1
:10179200CB2BCC2BE12B0330F8002030F900A23008
:1017A200FA00023020003C060319D82BDA2B013054
:1017B200DB2B0030FB0000308D3148258B31F52BBF
:1017C2000330F8001B30F900A230FA00023020008A
:1017D2003C060319ED2BEF2B0130F02B0030FB0000
:1017E20000308D3148258B310330F8002D30F9005F
:1017F200A230FA00033020003C060319012C032C0E
:101802000130042C0030FB0007308D3148258B312C
:10181200080001302000E6070A306606031D122C7C
:10182200132C382CE60191319A218C3195313125D6
:101832008C312000B10121003F082000B3002100BB
:101842003E082000B200B40100309E315E268C3189
:101852002000B10121003D082000B30021003C0816
:101862002000B200B40106309F31AF278C31FB302B
:1018720020006106031D3E2C3F2C4B2C0130E30758
:1018820004306302031C462C472C482CE3018B31A5
:1018920054238C31503020006106031D512C522CF0
:1018A200C72C2830E10221005708031D592C5A2C5D
:1018B200602C2000630803195F2C602C6C2C210023
:1018C20057080319652C662C782C20006303031D2E
:1018D2006B2C6C2C782C21005808031D712C722C57
:1018E200752C0130D800782C58357F39D80021006A
:1018F2005708031D7D2C7E2C842C200063030319C2
:10190200832C842C902C210057080319892C8A2CB3
:101912009C2C20006308031D8F2C902C9C2C2100F2
:101922005908031D952C962C992C0130D9009C2C1A
:1019320059357F39D900023020006306031DA22CDD
:10194200A32CB02C21005708031DA82CA92CAC2CC9
:101952000130D700AD2CD701FF302000E100033069
:101962006306031DB52CB62CC12C6508F200640871
:10197200F1009831DE208C31983137208C31472D9F
:101982008B3154238C319431B3248C312000BD012E
:1019920021005708031DCE2CCF2CD52C2000630824
:1019A2000319D42CD52CE12C210057080319DA2C69
:1019B200DB2C022D20006303031DE02CE12C022D01
:1019C20021003503031DE62CE72CF12C58080319DE
:1019D200EB2CEC2CEE2C0130D80201302000BD00A3
:1019E20021003603031DF62CF72C022D7F305802FE
:1019F2000318FC2CFD2CFF2C0130D80701302000ED
:101A0200BD0021005708031D072D082D0E2D2000B3
:101A1200630303190D2D0E2D1A2D210057080319EA
:101A2200132D142D3B2D20006308031D192D1A2D93
:101A32003B2D21003503031D1F2D202D2A2D590872
:101A42000319242D252D272D0130D9020130200024
:101A5200BD0021003603031D2F2D302D3B2D7F307D
:101A620059020318352D362D382D0130D907013092
:101A72002000BD0020003D080319402D412D472DB7
:101A82009431B3248C318B3154238C3108002000E3
:101A9200A4007B0803194E2D4F2D522DFF30AE00AE
:101AA200532DAE017835A50080302406031D5A2D32
:101AB2005B2D8B2DA9017A08AD007908AC00672D4A
:101AC2000130A9070130AC070030AD3D2C0884007D
:101AD2002D0885001200031D6F2D702D612D0C3015
:101AE200F00029089831B8208D312000A900023079
:101AF200F0000030F1008030A00029082002F2003E
:101B0200F301031CF30391313F218D317008200052
:101B1200A800932D0C30F00024089831B8208D31A4
:101B22002000A8002808F20025089C3119248D31D4
:101B32007A082000AD007908AC00102E2C08840031
:101B42002D0885000008E03EF000FF300318003049
:101B5200F1000530F2000030F3009A3142228D315B
:101B620071082000A7007008A600AA017A30A00020
:101B72008330A1002A082007A2000030213DA300E3
:101B82002208260784002308273D85000008B000AC
:101B9200AF13B01DCD2DAF1720002F13301DD22D46
:101BA2002F172000AF12301DD72DAF1620002F1295
:101BB200B01CDC2D2F162000AF11B01CE12DAF158B
:101BC20020002F11301CE62D2F152000AF10301CE5
:101BD200EB2DAF1420002F102F082E06AF002F0878
:101BE2009D31B4258D3120002F089D31B4258D31D2
:101BF20001302000AA0705302A02031C012E022E02
:101C0200B72D2E089D31B4258D3120002E089D312F
:101C1200B4258D3101302000AC070030AD3D2C08D9
:101C220084002D0885001200031D182E192E9F2DE9
:101C32002808F2002508013E9C3119248D317A08CA
:101C42002000AD007908AC00972E2C0884002D08E6
:101C520085000008E03EF000FF3003180030F1007C
:101C62000530F2000030F3009A3142228D317108C2
:101C72002000A7007008A600AB017A30A0008330D4
:101C8200A1002B082007A2000030213DA30022085A
:101C9200260784002308273D85000008B000AF1303
:101CA2002F13301F552E2F172000AF12301F5A2E20
:101CB200AF1620002F12B01E5F2E2F162000AF117C
:101CC200B01E642EAF1520002F11301E692E2F1565
:101CD2002000AF10301E6E2EAF1420002F10B01D4A
:101CE200732E2F1420002F082E06AF002F089D31CF
:101CF200B4258D3120002F089D31B4258D3101305E
:101D02002000AB0705302B02031C882E892E3E2EA5
:101D12002E089D31B4258D3120002E089D31B42529
:101D22008D3101302000AC070030AD3D2C0884001D
:101D32002D0885001200031D9F2EA02E262E9831FD
:101D420092208D31080091319A218E3195313125C1
:101D52008E3121003D08803A2000C90080304902BE
:101D6200031DB62E053021003C02031CB92EBA2EEB
:101D7200D32E21004503031DBF2EC02ED32E4708AC
:101D820020006706031DC92E2100460820006606B2
:101D9200031DCC2ECD2ED02E983140208E31200026
:101DA200E601E70121004503031DD82ED92E222F7B
:101DB20048030319DD2EDE2E222F20006708803A09
:101DC200C90021004708803A20004902031DED2E78
:101DD20021004608200066020318F02EF12E222F61
:101DE20001302000E80764306806031DF92EFA2E40
:101DF200222FE8010130E6070030E73D21004708C5
:101E020020006706031D092F2100460820006606F0
:101E1200031D0C2F0D2F222F9A31A0228E31F80193
:101E2200F80A3630F900A130FA00FB0180308D311A
:101E320048258E310030F100F2009831DE208E31DB
:101E4200222F20006708803AC90021004708803A03
:101E520020004902031D312F21004608200066029E
:101E6200031C342F352F3B2F2100450303193A2F32
:101E72003B2FF62F01302000E3070A306306031DD3
:101E8200432F442F672FE30121003D08803A2000B1
:101E9200C90080304902031D512F013021003C024C
:101EA2000318542F552F5C2F200064086504031972
:101EB2005B2F5C2F672F21003D082000E5002100E9
:101EC2003C082000E400893144218E312100440382
:101ED200031D6C2F6D2FA52F48030319712F722F2D
:101EE200A52F3D08803A2000C90080304902031D19
:101EF2007D2F013021003C02031C802F812FA52F52
:101F020021003F08803A2000C90021004308803A9E
:101F120020004902031D902F210042083E02031CAB
:101F2200932F942FA52F8F302000DB00A130DC00EF
:101F320002305B0784005C080318013E8500013F04
:101F42008A00003F0A008F31FB3020006106031D2A
:101F5200AB2FAC2FCD2F21004803031DB12FB22F81
:101F6200BB2FC8014A08F2004908F1009831DE206F
:101F72008E31C02F8F302000DB00A130DC00023018
:101F820020005B0784005C080318013E8500013FC6
:101F92008A00003F0A008F31503020006106031D85
:101FA200D32FD42FFF2F21004803031DD92FDA2F5F
:101FB200E32FC8014A08F2004908F1009831DE20F7
:101FC2008E31E82FD1302000DB00A130DC0002305E
:101FD20020005B0784005C080318013E8500013F76
:101FE2008A00003F0A008F31FF2F20006103031D8A
:101FF200FB2FFC2FFF2F983140208E310800FB3041
:1020020020006106031D0628072813280130E40773
:1020120002306402031C0E280F281028E4019A31B2
:10202200EA229031503020006106031D19281A2837
:1020320034286408031D1E281F283128993188215D
:10204200903171082000E6007008E5006530F40068
:102052000030F5000A30F60000309931B921903194
:10206200983137209031080020000D1839283A287D
:102072004C28FA30610203183F28402842280130D8
:10208200E10750306106031D4728482865280130C2
:102092002100B700652821003708031D5128522866
:1020A2006128200061080319572858286128FB304D
:1020B200610203185D285E286128FB30E100632875
:1020C2002000E1012100B70120008D1869286A284B
:1020D200762801302100B60714303602031C72281C
:1020E200732878280130B60078282100B601200034
:1020F2000D197C287D28892801302100B50714306C
:102102003502031C852886288B280130B5008B28D0
:102112002100B5010800210065082000B10021005E
:1021220066082000B200210067082000B300C00149
:1021320067084007B4003408303EB1004008013E51
:10214200F8003130F9000030FA006508340603194E
:10215200AB28AD280130AE280030FB0000308D31B5
:10216200482590313530F3000030F4000A30F50094
:102172000A30F000200034089831B8209031003E37
:102182009931702190312000BF014008013EF800D2
:102192003730F9000030FA00650834060319D228F6
:1021A200D4280130D5280030FB0002308D3148257B
:1021B200903101302000C00703304002031CE228A6
:1021C200E32899280800C030F3000030F400023000
:1021D200F5007030993170219031C230F300003037
:1021E200F4000230F5006E30993170219031C43024
:1021F200F3000030F400F501F50A733099317021D3
:102202009031C630F3000030F4000230F5006C303B
:10221200993170219031C530F3000030F400F5019E
:10222200F50A7230993170219031CB30F3000030D1
:10223200F4000230F5006A30993170219031CD30CE
:10224200F3000030F4000230F5006830993170215B
:102252009031CF30F3000030F4000230F5006630E8
:10226200993170219031D130F3000030F400023006
:10227200F50064309931702190310800F501F11FA9
:10228200432944294B29F009F109F00A0319F10AFB
:102292000130F500F31F4E294F295629F209F3099F
:1022A200F20A0319F30A0130F506F601F701700884
:1022B200710403195D295E298B290130F400682914
:1022C2000130F035F10D890B62290130F407F11F5D
:1022D2006B296C2961290130F635F70D890B6D29BF
:1022E20071087302031D772970087202031C7A2990
:1022F2007B2980297008F2027108F33B76140130C1
:10230200F136F00C890B81290130F402031D8A2970
:102312008B296C29750803198F2990299529F609AB
:10232200F709F60A0319F70A7708F1007608F000B0
:102332000800BC3086000030870053310030200096
:10234200A3000030A2001030A1000030A000210044
:102352005108F0005208F100890D893B8909F20009
:10236200F3005508F4005608F500890D893B8909E8
:10237200F600F7009C317A24913173082000A700FF
:102382007208A6007108A5007008A40096314026C4
:102392009131403F20002007B500413F213DB6006A
:1023A2003608FD003508FC009F311A2791317D085F
:1023B2002000B8007C08B7003808803AB4008030AA
:1023C2003402031DE629023037020318E929EA29FB
:1023D200ED292000B701B801200038082100BD0016
:1023E200200037082100BC000800210069082000F5
:1023F200C200210068082000C1006408313EC1000B
:10240200F801EF30F900A130FA00FB0100308D3104
:1024120048259131F8014130F9000030FA00FB0102
:1024220009308D3148259131F801F80AA730F900B9
:10243200A030FA00FB0100308D3148259131023085
:10244200F800F530F900A130FA00FB0100308D31BF
:102452004825913102302000B1006408BD00BE0160
:10246200BD35BE0D6530BF000030C0003D083F07DE
:1024720086003E08403D8700403FB200413FB30026
:1024820063080319452A472A0130482A0030B4005C
:1024920006309F31AF2791310330F8002D30F9001B
:1024A200A230FA00200063030319582A5A2A013085
:1024B2005B2A0030FB0007308D314825913108003E
:1024C20001302000E6070030E73D01306702F430BA
:1024D20003196602031C6E2A6F2A732A9831372069
:1024E2009231CE2AFB306106031D782A792AAC2A62
:1024F200E601E70165086402B9009E2A0130200066
:10250200E407A92A6508043EB6000030031801302A
:10251200B7003708803AB80080303802031D932A8A
:10252200630836020318962A972A7F2A0130200070
:10253200E5077F2AE501E401A92A3908003A0319CF
:102542007F2A013A0319832A033A03197F2A9B2A15
:102552009D317E259231503020006106031DB22A42
:10256200B32ACE2A6408B600B701B635B70D3608CD
:10257200680786003708693D8700403FDB00413F1E
:10258200DC0002305B0784005C080318013E850012
:10259200013F8A00003F0A009231080020006308D0
:1025A200B5006403031DD62AD72AE92AF80125308B
:1025B200F900A230FA0035080319E02AE22A0130B4
:1025C200E32A0030FB0007308D3148259231FA2A88
:1025D200F8012930F900A230FA0035080319F22A6D
:1025E200F42A0130F52A0030FB0007308D314825EE
:1025F200923120006608F9006508F8003130FA00CF
:102602000430FB00943135249231F801F80A31305C
:10261200F9000030FA00200035030319112B132BA7
:102622000130142B0030FB0007308D3148259231E8
:102632000330F8000730F900A230FA00023020001F
:1026420035060319252B272B0130282B0030FB00E0
:1026520000308D31482592310330F8002D30F900D9
:10266200A230FA000330200035060319392B3B2B28
:1026720001303C2B0030FB0007308D314825923170
:1026820008009D31492593319031E42093319831EE
:102692006420933199315A219331F430F0000130A2
:1026A200F1009931D2219331F701F70A783097314D
:1026B2005E279331F8017430F900A130FA00FB0172
:1026C20080308D3148259331F801F80A6C30F900D9
:1026D200A130FA00FB0180308D3148259331023060
:1026E200F8006330F900A130FA00FB0180308D312F
:1026F20048259331DC30F0000530F1009931D221C8
:1027020093319A31A022933198313720933151304D
:10271200F3000030F4000A30F500003099317021E6
:10272200933120005208F2005108F1009831DE2066
:10273200933121003A083B060319A02BA12BA82BA9
:102742000130BA070130B9078731162793310A30B1
:1027520021003906031DAE2BAF2B9A2BB901903104
:10276200352093319A312522933164009A2B80319E
:10277200112820006308BC006803031DC12BC22B73
:10278200D42BF8012530F900A230FA003C080319D5
:10279200CB2BCD2B0130CE2B0030FB0007308D31FF
:1027A20048259331E52BF8012930F900A230FA00CF
:1027B2003C080319DD2BDF2B0130E02B0030FB003E
:1027C20007308D31482593312000B101B10A6708E5
:1027D200B3006608B2003C030319F02BF22B013060
:1027E200F32B0030B40006309E315E269331023066
:1027F2002000B1006508B3006408B20002303C0654
:102802000319042C062C0130072C0030B4000630CA
:102812009E315E2693310330F8000730F900A23072
:10282200FA00033020003C060319182C1A2C013040
:102832001B2C0030FB0000308D31482593310330D2
:10284200F8002D30F900A230FA00043020003C06D6
:1028520003192C2C2E2C01302F2C0030FB000730BA
:102862008D314825933108002000A00102307B02FF
:1028720003183C2C3D2C3E2CB22C7B08FF3EA100C1
:102882007A082107A2002208860087018101F91F28
:102892004B2C4C2C532C0130A000F809F909F80AF2
:1028A2000319F90A0130A1020130A2027908803A23
:1028B200FC0080307C02031D602C01307802031C76
:1028C200632C642C862C20002208860087010A30A3
:1028D200F0000030F1007908F3007808F2009F312F
:1028E2005E2794317008303E81000A30F0000030DB
:1028F200F1007908F3007808F20091313F21943118
:102902007108F9007008F800AC2C7B08FE3EFC0050
:10291200FF3003180030FD00200021087C067D04F2
:10292200031D942C952C9B2C2208860087013030A5
:102932008100AC2C200803199F2CA02CA72C220864
:10294200860087012D308100A001AC2C2208860070
:1029520087012030810020002108031DB12CB22CF8
:10296200532C080021005908F0007018B92CBC2C17
:1029720022008D15BE2C22008D11F018C12CC42C02
:1029820022000C15C62C22000C117019C92CCC2C5B
:1029920022000D16CE2C22000D12F019D12CD42CAF
:1029A20022008C15D62C22008C11701AD92CDC2C0A
:1029B20022008D16DE2C22008D12F01AE12CE42C5E
:1029C20022008C16E62C22008C12701BE92CEC2CB7
:1029D20022000C16EE2C22000C1221005808F000E6
:1029E2007018F42CF72C22008E17F92C22008E136B
:1029F200F018FC2CFF2C22008E15012D22008E11C6
:102A02007019042D072D22000E17092D22000E1316
:102A1200F0190C2D0F2D22000E15112D22000E1172
:102A2200701A142D172D22008E16192D22008E12C7
:102A3200F01A1C2D1F2D22008E14212D22008E1023
:102A4200701B242D272D22000E16292D22000E1276
:102A52002100570C2200031C0E1003180E1408004C
:102A62002000AE01AF0121005608803AFC00803000
:102A72007C02031D3E2D64305502031C412D422D64
:102A8200AC2D21005408803AFC005608803A7C02A2
:102A9200031D4D2D550853020318502D512DA72DFE
:102AA200BC308600003087005731BC3084000030D3
:102AB20085001931403F00022000A0000131413F52
:102AC200003BA100A201A11BA2032208A300BC306B
:102AD2008600003087005731BC308400003085000A
:102AE2001931403F0007F0000131413F003DF10044
:102AF200F201F11BF2037208F3000030F70000301C
:102B0200F6000030F5006430F4009C317A249531EF
:102B120073082000A7007208A6007108A5007008BB
:102B2200A40096314026953120002108AF002008EC
:102B3200AE002F08803AFC0083307C02031DA32DD7
:102B4200E8302E02031CA62DA72DAC2DE730200065
:102B5200AE000330AF0020002F082100BF0020008C
:102B62002E082100BE00080001302000E3070030DB
:102B7200E43D01306402F43003196302031CC22DE8
:102B8200C32DC72D9831372095313F2EFB3061067A
:102B9200031DCC2DCD2DFD2DE301E4016708650257
:102BA200C400F22D01302000E507FA2D6708033E2C
:102BB200C100003003180130C2004208803AC3004D
:102BC20080304302031DE72D0A3041020318EA2D2B
:102BD200EB2DD32D01302000E707D32DE701E501CE
:102BE200FA2D4408003A0319D32D013A0319D72DBF
:102BF200EF2D90318C209531503020006106031D5D
:102C0200032E042E3F2E6603031D082E092E262EA8
:102C12006508031D0D2E0E2E132E8330DB00A1300E
:102C2200DC00192E6508E3008930DB00A130DC00EE
:102C320002305B0784005C080318013E8500013FF7
:102C42008A00003F0A0096313F2E4530F3000030E3
:102C5200F4000A30F5000A30F00065089831B82017
:102C62009531003E99317021953120004608F200DD
:102C72004508F1009831DE209531C32D080020006F
:102C8200A901A31F452E462E532EA009A109A20970
:102C9200A309A00A0319A10A0319A20A0319A30A84
:102CA2000130A900A71F562E572E642EA409A5098C
:102CB200A609A709A40A0319A50A0319A60A031952
:102CC200A70A0130A9060030AD000030AC00003088
:102CD200AB000030AA0023082204210420040319B7
:102CE200732E742EB32E0130A800802E0130A03531
:102CF200A10DA20DA30D890B782E0130A807A31FE9
:102D0200832E842E772E0130AA35AB0DAC0DAD0D7E
:102D1200890B852E23082702031D992E22082602DD
:102D2200031D992E21082502031D992E2008240235
:102D3200031C9C2E9D2EA62E2008A4022108A53B32
:102D42002208A63B2308A73B2A140130A336A20C73
:102D5200A10CA00C890BA72E0130A802031DB22ED4
:102D6200B32E842E29080319B72EB82EC32EAA0912
:102D7200AB09AC09AD09AA0A0319AB0A0319AC0ADB
:102D82000319AD0A2D08A3002C08A2002B08A100EC
:102D92002A08A0000800FB3020006106031DD22E85
:102DA200D32EDF2E0130E30704306302031CDA2E38
:102DB200DB2EDC2EE3019231CF22963150302000FF
:102DC2006106031DE52EE62E5D2F2830E102630821
:102DD200031DEC2EED2EF92E6403031DF12EF22EAF
:102DE200F42EE401F62E0130E4009231CF22963126
:102DF20020006303031DFE2EFF2E2C2F6608803A4F
:102E0200B60080303602031D082F64306502031CB1
:102E12000B2F0C2F122F0F302000E5070030E63D5C
:102E2200172F05302000E5070030E63D6608803A9E
:102E3200B60081303602031D202F2D306502031C9F
:102E4200232F242F292F05302000E5000030E60033
:102E52009231CF229631023020006306031D322FB9
:102E6200332F562F66082100C70020006508210075
:102E7200C600200064082100C500C630F4000030FE
:102E8200F5000230F6006C309931B9219631C53027
:102E9200F4000030F500F601F60A72309931B921DA
:102EA20096319831372096315D2F03306306031D2A
:102EB2005B2F5C2F5D2F522F0800F800780820004E
:102EC200E20077082100B8000D178D1722000D13BC
:102ED2008D130630890B6B2F00329931A021973167
:102EE200200062089D31B425973100309D31B42510
:102EF2009731AE309D31B4259731D5309D31B4250F
:102F0200973180309D31B4259731A8309D31B42559
:102F120097313F309D31B4259731D3309D31B4255F
:102F2200973100309D31B425973140309D31B42521
:102F320097318D309D31B425973114309D31B425B0
:102F4200973181309D31B4259731FF309D31B425C1
:102F52009731D9309D31B4259731F1309D31B42567
:102F6200973120309D31B425973102309D31B425FF
:102F7200973121309D31B425973100309D31B425F0
:102F820097317F309D31B42597312E309D31B42554
:102F9200973121003803031DCF2FD02FD92FA03016
:102FA2009D31B4259731C0309D31B4259731E12F41
:102FB200A1309D31B4259731C8309D31B425973168
:102FC200DA309D31B425973112309D31B4259731D5
:102FD200DB309D31B425973140309D31B425973196
:102FE200A4309D31B4259731A6309D31B425973157
:0E2FF2009831922097319A31A0229731080031
:10303600AE309931062198310800AF30993106211A
:1030460098310800FF302000E1002100B701080098
:10305600640080010131890B2C280034FE00120027
:103066001E00FE0B32280034D7302000DB00A130D2
:10307600DC009B3163239831080020006A08F200C7
:103086006908F1009831DE2098319B31632398312D
:1030960008002000E501E701E301E40190318C20FE
:1030A600983198312520983108000030F100F2005F
:1030B6009831DE2098312100C801983137209831A7
:1030C600080021000D1424000D1421008D14240085
:1030D6008D1421000D1524000D1508000130210066
:1030E600B400B201B101D701D801D9019431B3249A
:1030F600983102302100B10008002000B4003208E7
:10310600B500B6013108F8003530F9000030FA0094
:103116003308FB0034088D3148259831080021001A
:103126008D130630890B9528003221000D170630C5
:10313600890B9B28003221008D170630890BA128A8
:1031460000320800F200640023009518AB28AC2872
:10315600A6287208F000F10170089100710892002B
:103166003F309505151413080800F200F101721C92
:10317600BD28BE28C0287008F1070310F00D031003
:10318600F20C7208031DC828C928BA28710808005D
:103196009A31A0229831F801FF30F900A030FA00E8
:1031A600FB0100308D31482598312000E601983129
:1031B6004C2098310800F21FE128E228E628013069
:1031C6002100D700E8282100D70172087F39D800EE
:1031D60071087F39D9009431B324983108009A31A7
:1031E600A0229831F8010A30F900A130FA00FB015B
:1031F60000308D314825983101302000E6009831A5
:103206004C2098310800F2009931A0219931200014
:1032160062089D31B425993180309D31B4259931AC
:1032260072089D31B4259931983192209931080060
:103236009A31A02299319831252099312000E40154
:10324600E501E601E7010630E3005430E80001300D
:10325600E9009D317E25993108009A31A0229931E5
:103266009831252099312000E401E501E601E701C6
:103276000430E3006030E8000130E9009D317E252E
:103286009931080001302100C8009931882199310F
:1032960071082100CA007008C9000030F100F20070
:1032A6009831DE2099319831372099310800210074
:1032B6000C1423000C1421008C1423008C1483306E
:1032C6002200970021009E171E088F3920389E0085
:1032D6001E1103309E041D140800F6007308F70043
:1032E600822977088600870176089831A5209931CA
:1032F60081000130F5020130F6070130F707750845
:10330600031D862987297429080021005808F20020
:10331600F3017208F300F20159087207F500003054
:10332600733DF6005708031999299A299B29F61720
:103336007608F1007508F000080021000D17063028
:10334600890BA329003221008D170630890BA92984
:10335600003221008D130630890BAF29003221007F
:103366000D130630890BB52900320800F7007408E2
:10337600F800CC297808860087010108F000770854
:103386009B31112399310130F6020130F7070130E4
:10339600F8077608031DD029D129BD290800710830
:1033A600F4007008F3006400E5290630F2003030BE
:1033B600890BDB29F20BDB29003264000130F302B2
:1033C6000030F43B73087404031DEA29EB29D8295D
:1033D60008009A31A0229931983125209931200090
:1033E600E30199318821993171082000E5007008C0
:1033F600E400E6012100D701D801D9019431B324B4
:1034060099318B315423993108009A31A0229A318F
:103416002000E301E40121004C082000E600210021
:103426004B082000E50021004E082000E80021009E
:103436004D082000E700983125209A319131F62178
:103446009A310800043020005B0784005C080318EA
:10345600013E85001200CF001200CF040319342A62
:10346600352A412A04305B0784005C080318013EB4
:103476008500013F8A00003F0A009A310800F401E6
:10348600F501701C472A482A4C2A7208F40773086B
:10349600F53D0130F235F30D890B4D2A0130F13639
:1034A600F00C890B522A70087104031D5B2A5C2AF2
:1034B600442A7508F1007408F00008009A31A02229
:1034C6009A31983125209A31F8017C30F900A130E3
:1034D600FA00FB01FB0A80308D3148259A31200025
:1034E600E401993188219A3171082000E6007008BC
:1034F600E500983171209A310800B234A034A7341F
:10350600A0349C34A0349134A0348634A0347B3467
:10351600A034C534A134B334A134B934A134BF3492
:10352600A134CB34A134AD34A134A734A134A134B1
:10353600A1349534A1349B34A13498311B209A319F
:10354600F601F20176089C3119249A31F501003012
:103556009D31B4259A310130F50780307502031C80
:10356600B52AB62AAA2A0130F60708307602031CC5
:10357600BD2ABE2AA42A983192209A319831202059
:103586009A31080021003408FC0002307C06031D35
:10359600CD2ACE2AD92A200064080319D32AD42A90
:1035A600D72AE401FC01D92A0130E4000230F800F0
:1035B6007C35483E860001308700403FF900413F98
:1035C600FA00FB0180308D3148259A31080003301E
:1035D600F8000730F900A230FA0020006408031949
:1035E600F52AF72A0130F82A0030FB0000308D3129
:1035F60048259A310330F8002D30F900A230FA0040
:10360600200064030319082B0A2B01300B2B003012
:10361600FB0007308D3148259A310800F30023005E
:103626009518162B172B122B7308F100F20171084F
:10363600910072089200700893003F3095052000B3
:1036460003108B1F272B282B292B03148B132300E6
:10365600151555309600AA309600951415112000C0
:10366600031C362B372B382B8B170800803147204D
:103676009B3101302000E30732306306031D442BE3
:10368600452B492BE3019A31C5229B31200061036A
:10369600031D4E2B4F2B5A2B6608F2006508F100CE
:1036A6009831DE209B31983137209B31622B0530D3
:1036B60021003406031D602B612B622B562B08005C
:1036C6009A31A0229B31983125209B31F801313067
:1036D600F900A230FA00FB0100308D3148259B31FC
:1036E600F801F80A3530F900A230FA00FB01003083
:1036F6008D3148259B312000E301FF30E400FF3087
:10370600E500E801E601E701993188219B3171085E
:103716002000EA007008E90008009A31A0229B31D7
:10372600983125209B31F801E330F900A130FA00E9
:10373600FB0100308D3148259B31F801F80AE9304C
:10374600F900A130FA00FB0100308D3148259B318C
:103756002000E301210045082000E400210047087D
:103766002000E600210046082000E5009231CF2225
:103776009B3108000730200024020318C32BC42BFA
:10378600C52BEA2B9C31AD249B3171082000A60085
:103796007008A5002608F9002508F8002308FA0095
:1037A6000530FB00943135249B3120002308043E6C
:1037B60086008701703081002308053E8600870158
:1037C600463081002308063E8600870181010800F5
:1037D6000730200024020318F12BF22BF32B182CB0
:1037E6009C31E1249B3171082000A6007008A500D9
:1037F6002608F9002508F8002308FA000530FB0022
:10380600943135249B3120002308043E860087012D
:103816006E3081002308053E86008701483081000E
:103826002308063E8600870181010800F4009931CD
:10383600A0219C31200062089D31B4259C310030C6
:103846009D31B4259C317408B03E9D31B4259C3120
:1038560072080F399D31B4259C317208F30004308B
:10386600F336890B332C7308103E9D31B4259C31F9
:103876009931A0219C31200062089D31B4259C31EC
:1038860040309D31B4259C310800F9007908F200DA
:10389600F20DF20D21001D087206833972069D0095
:1038A6000630890B542C003221009D149D185C2C87
:1038B6005D2C592C1C08F200F3017208F7007308FE
:1038C600F8007808F3007708F2007208F300F201B6
:1038D6001B087207F5000030733DF600F535F60D4E
:1038E600F535F60D7508F0007608F1000800003091
:1038F600FB000030FA000030F9000030F800701CC0
:10390600852C862C8E2C7408F8077508F93D7608E8
:10391600FA3D7708FB3D0130F435F50DF60DF70D50
:10392600890B8F2C0130F336F20CF10CF00C890B5D
:10393600962C7308720471047004031DA32CA42C26
:10394600822C7B08F3007A08F2007908F1007808E7
:10395600F0000800F601F701F8010130F200780ADC
:10396600B52CF235890BB42C7208210058050319C1
:10397600BD2CBE2CD42C7808F200F301F235F30DE1
:103986005730720784002030733D80388500003F31
:10399600F400013FF50076087407F6007708753DD8
:1039A600F7000130F80707307802031CDB2CDC2C0B
:1039B600B02C7708F1007608F0000800F601F70150
:1039C600F8010130F200780AE92CF235890BE82C6F
:1039D6007208210059050319F12CF22C082D7808DC
:1039E600F200F301F235F30D4930720784002030FE
:1039F600733D80388500003FF400013FF5007608EE
:103A06007407F6007708753DF7000130F8070730B0
:103A16007802031C0F2D102DE42C7708F100760890
:103A2600F00008009A31A0229D31F8015130F900CA
:103A3600A130FA00FB0180308D3148259D31F80117
:103A4600F80A4830F900A130FA00FB0180308D31C8
:103A560048259D310230F8004230F900A230FA00C4
:103A6600FB0180308D3148259D310330F80001304F
:103A7600F900A230FA00FB0180308D3148259D31D6
:103A8600983125209D312000E30108007A3021007D
:103A9600990022008C018D018E0120001C08FC3942
:103AA60002389C0087309C05FA309B002100911457
:103AB6000B1720001C158B17C03023008D05220024
:103AC6009113931321008E138E110E130E118E1265
:103AD6008E100E120E108D110C110D128C118D12EE
:103AE6008C120C12D901D801D7016430C000003005
:103AF600C1009513080020006508FC00FD017D0843
:103B0600F8007C082000B100B201B135B20D3108D1
:103B1600680786003208693D8700403FB300413F91
:103B2600B4003308840034088500003FF900013FE3
:103B3600FA0064087C060319A12DA32D0130A42DDB
:103B46000030FB0080308D3148259D310130FC0767
:103B56000130FD0704307D02031CB22DB32D822DEA
:103B66000800F000F101F01BB92DBA2DBD2D210082
:103B76008D13BF2D21008D170630890BC02D003205
:103B860021000D170630890BC62D003221000D13BA
:103B96000630890BCC2D00327035F0000130F1076C
:103BA60008307102031CD82DD92DB62D21008D1792
:103BB6000630890BDC2D003221000D170630890BEB
:103BC600E22D003221000D130630890BE82D00325C
:103BD6000800210062082000B100210063082000CF
:103BE600B200210064082000B3006308303EB10033
:103BF6009A31A0229D31F8013130F9000030FA00E7
:103C0600FB0100308D3148259D316630F3000030D0
:103C1600F4000A30F5000A30F000200063089831FD
:103C2600B8209D31003E993170219D312000E4017C
:103C36002830E500983125209D318A31A0229D311A
:103C460008009A31A0229E3121005F082000B100B1
:103C5600210060082000B200210061082000B300A6
:103C6600F801F80A3130F9000030FA00FB010030A3
:103C76008D3148259E316530F3000030F4000A305E
:103C8600F5000030993170219E312000EF01F801D6
:103C9600F80A6730F9000030FA00FB0102308D3176
:103CA60048259E312000E401983125209E319A3125
:103CB600EA229E3108002000B600DA308600003085
:103CC600870037308400003085000530B5001600C7
:103CD6001A00B50B6A2E3308803AB50080303502DB
:103CE600031D772E64303202031C7A2E7B2E8C2E17
:103CF60020003308F9003208F8003830FA000430A2
:103D0600FB00943135249E3120003808B7002E3050
:103D1600B80020003108F8003730F9000030FA000A
:103D26003408FB0036088D3148259E3108009A314B
:103D3600A0229E31983125209E31F8011130F900DC
:103D4600A230FA00FB0100308D3148259E31F80182
:103D5600F80ADD30F900A130FA00FB0100308D31A0
:103D660048259E310230F8000C30F900A230FA00E6
:103D7600FB0100308D3148259E312000E3012100F2
:103D860044082000E800210043082000E700210045
:103D960042082000E600210041082000E50021003D
:103DA60040082000E4009331BA239E310800200029
:103DB6006103031DDF2EE02E192F6308031DE42E79
:103DC600E52E162F0130E3079A31A0229E31F80125
:103DD6002B30F900A130FA00FB0180308D314825E7
:103DE6009E31F801F80A5A30F900A130FA00FB01B9
:103DF60080308D3148259E310230F8004230F9007E
:103E0600A230FA00FB0180308D3148259E31033007
:103E1600F800FB30F900A130FA00FB0180308D314B
:103E260048259E31192F983137209E3108000030E1
:103E36002000A3000030A200C330A1005030A00033
:103E4600A830AE006130AF000030B0000030B100E5
:103E56007C08F0007D08F100890D893B8909F20094
:103E6600F3007C08F4007D08F500890D893B89097B
:103E7600F600F7009C317A249F3170082000AE07C7
:103E86007108AF3D7208B03D7308B13D3108A70017
:103E96003008A6002F08A5002E08A400963140265B
:103EA6009F3120002108B3002008B2003308FD002E
:103EB6003208FC000800F501F31F622F632F6A2FFA
:103EC600F209F309F20A0319F30A0130F500F11FAA
:103ED6006D2F6E2F732FF009F109F00A0319F10AFD
:103EE600700871040319782F792FA02F0130F40080
:103EF600832F0130F035F10D890B7D2F0130F4074A
:103F0600F11F862F872F7C2F71087302031D8D2FBB
:103F160070087202031C902F912F952F7008F202E1
:103F26007108F33B0130F136F00C890B962F013006
:103F3600F402031D9F2FA02F872F75080319A42FA6
:103F4600A52FAA2FF209F309F20A0319F30A730837
:103F5600F1007208F00008002000B6000130B7003A
:103F66003308803AB50080303502031DBC2F64301B
:103F76003202031CBF2FC02FD22F0A30F0000030B0
:103F8600F10020003308F3003208F20091313F219E
:103F96009F3171082000B3007008B200B7012000FD
:103FA6003308F9003208F8003830FA000430FB0014
:103FB600943135249F31200037080319E32FE42F6D
:103FC600F02F3908B80020303806031DEB2FEC2FF0
:103FD600EE2F3030B8002E30B9005730BB00BC0190
:103FE6003108F8003830F9000030FA003408FB00D8
:103FF60036088D3148259F3108002034303431345D
:10400600323433343434353436343734383439345E
:1040160061346234633464346534663467346834D6
:1040260069346A346B346C346D346E346F34703486
:104036007134723473347434753476347734783436
:1040460079347A3441344234433444344534463442
:104056004734483449344A344B344C344D344E3466
:104066004F34503451345234533454345534563416
:104076005734583459345A343F3421342F342B347E
:104086002D342334253424345F3400343234003460
:1040960064340034DC340034C2340134E83403348C
:1040A60098340834303411340A3400341634003469
:1040B6002F34003464340034DC340034D634013414
:1040C600E834033400340134023404340834103440
:1040D60020344034603470347F3400340134023488
:1040E60004340834103420344034603470347F345F
:1040F60020342034523465346134643479342034C5
:104106002034203400342034503457345234203490
:104116006C346F3477342034203400342034203427
:1041260042347234653461346B34203420342034A4
:1041360000342034523475346E346E3469346E343F
:10414600673420342034003477346134693474346D
:10415600203466342E342034483446340034203437
:1041660020342034203420342034203420342034A9
:1041760020340034413462346F347534743420345E
:1041860020342034203420340034533465347434DD
:1041960075347034203420342034203420340034F4
:1041A600433461346C346934623472346134743447
:1041B6006534203400345434653473347434203414
:1041C60020342034203420342034003453346C34EA
:1041D600653465347034203420342034203420345F
:1041E6000034543475346E3469346E346734203494
:1041F60020342034203400344C346F346134643439
:104206002034543475346E346534203400345334D9
:104216006134763465342034543475346E34653400
:104226002034003442347934703461347334733456
:10423600203420342034203400345234653473342E
:10424600653474342034203420342034203400344F
:1042560059346534743441346E346F34743468348C
:1042660065347234003473346C34653465347034B8
:1042760069346E346734003420344234793470340F
:1042860061347334733420340034643465347334E5
:10429600693467346E3465346434003448346134C8
:1042A600723464347734613472346534003446349D
:1042B600693472346D347734613472346534003461
:1042C600563430342E3436343834733477346A34D2
:1042D60000344534583454342D345934413446343A
:1042E60000344134543455342D3431343034303480
:1042F60000342034543475346E346534203400343C
:104306000034003424341E340034103400340034B5
:10431600EC341D34013408340034003461341A346A
:1043260039341B34D334A03408341A345A3405349F
:10433600DE34A034EC3419340A340C34E934A034B5
:1043460090341B34CC341634F434A0349A341E34EE
:10435600F0340934BD34A03415341D34DA341E3437
:10436600FF34A034CB341834B53415340A34A134B0
:10437600F2341834B53415342034A1345834183492
:10438600003400341534A134453419340034003473
:10439600C834A03430341934613412340034003453
:1043A6001B341934613412340034003463341B3442
:1043B600A4340E3453347434613472347434003497
:1043C60053346C34653465347034003444346534A5
:1043D6006C3461347934003450346F3469346E345B
:1043E6007434003450346F347734653472340034A6
:1043F60044344734343453344E3400344E34373432
:1044060044344434433400345334613476346534AC
:104416000034533474346F3470340034413475349A
:1044260074346F3400344134553454344F340034CA
:104436003E344C342D34433400343E3443342D342E
:104446004C34003420344F346E3400344F346634E8
:10445600663400344534733463340034503457348E
:104466005234003453345734523400344F346B349E
:10447600003443343D3400344C343D34003462342B
:044486007934003451
:020000040001F9
:08000000FF3FFF3FFF3FFF3F00
:04000E00FF3FFF3F72
:10E00000000000005300740061007200740075008D
:10E0100070002000000000002000200020002000F0
:10E020002000200020002000000000002000200030
:10E030002000200020002000200020000000000020
:10E0400020002000200020002000200020002000D0
:10E050000000000020002000200020002000200000
:10E0600020002000000000002000200020002000F0
:10E0700020002000200020000000000020002000E0
:10E0800020002000200020002000200000000000D0
:10E090002000200020002000200020002000200080
:10E0A00000000000200020002000200020002000B0
:10E0B00020002000000000002000200020002000A0
:10E0C0002000200020002000E0002E00960000002C
:10E0D0001E0000000A0000001E0000008C0000006E
:08E0E0007800000000000000C0
:00000001FF
